{
  "transactions": [
    {
      "hash": "0x9fb5439c513c7b365f5b7e748cdb96ae1678f06039bb2b1d72e1fb461c555d1e",
      "transactionType": "CREATE",
      "contractName": "Utils",
      "contractAddress": "0x7D3cc8ea9174E48b8f3FFC2a226f09b2C8EBa6FB",
      "function": null,
      "arguments": null,
      "transaction": {
        "type": "0x02",
        "from": "0xfd896bf5eba7e1b9843b91ef6182de16b547273b",
        "gas": "0xa24e1",
        "data": "0x61084961003a600b82828239805160001a60731461002d57634e487b7160e01b600052600060045260246000fd5b30600052607381538281f3fe73000000000000000000000000000000000000000030146080604052600436106100355760003560e01c80638f7f596e1461003a575b600080fd5b61004d61004836600461053f565b610063565b60405161005a91906105a8565b60405180910390f35b6040805160608082018352808252602082015260009181019190915260006100ab8360405160200161009791815260200190565b6040516020818303038152906040526101d4565b90506000816040516020016100c091906105f8565b60408051601f19818403018152606083019091526025808352909250600091906107af6020830139905060006002836040516100fc9190610697565b602060405180830381855afa158015610119573d6000803e3d6000fd5b5050506040513d601f19601f8201168201806040525081019061013c91906106b3565b90506000600283836040516020016101559291906106cc565b60408051601f198184030181529082905261016f91610697565b602060405180830381855afa15801561018c573d6000803e3d6000fd5b5050506040513d601f19601f820116820180604052508101906101af91906106b3565b6040805160608101825294855260208501959095529383019390935250949350505050565b606060006101e1836103ec565b9050600081905060006002825111801561022c575081600283516102059190610704565b815181106102155761021561071d565b6020910101516001600160f81b031916603d60f81b145b1561023957506002610284565b6001825111801561027b575081600183516102549190610704565b815181106102645761026461071d565b6020910101516001600160f81b031916603d60f81b145b15610284575060015b60008183516102939190610704565b905060008167ffffffffffffffff8111156102b0576102b0610733565b6040519080825280601f01601f1916602001820160405280156102da576020820181803683370190505b50905060005b828110156103e1578481815181106102fa576102fa61071d565b01602001516001600160f81b031916602b60f81b0361034657602d60f81b82828151811061032a5761032a61071d565b60200101906001600160f81b031916908160001a9053506103cf565b8481815181106103585761035861071d565b01602001516001600160f81b031916602f60f81b0361038857605f60f81b82828151811061032a5761032a61071d565b84818151811061039a5761039a61071d565b602001015160f81c60f81b8282815181106103b7576103b761071d565b60200101906001600160f81b031916908160001a9053505b806103d981610749565b9150506102e0565b509695505050505050565b6060815160000361040b57505060408051602081019091526000815290565b60006040518060600160405280604081526020016107d4604091399050600060038451600261043a9190610762565b6104449190610775565b61044f906004610797565b67ffffffffffffffff81111561046757610467610733565b6040519080825280601f01601f191660200182016040528015610491576020820181803683370190505b509050600182016020820185865187015b808210156104fd576003820191508151603f8160121c168501518453600184019350603f81600c1c168501518453600184019350603f8160061c168501518453600184019350603f81168501518453506001830192506104a2565b5050600386510660018114610519576002811461052c57610534565b603d6001830353603d6002830353610534565b603d60018303535b509195945050505050565b60006020828403121561055157600080fd5b5035919050565b60005b8381101561057357818101518382015260200161055b565b50506000910152565b60008151808452610594816020860160208601610558565b601f01601f19169290920160200192915050565b6020815260008251606060208401526105c4608084018261057c565b90506020840151601f198483030160408501526105e1828261057c565b915050604084015160608401528091505092915050565b7f7b2274797065223a22776562617574686e2e676574222c226368616c6c656e6781526332911d1160e11b60208201526000825161063d816024850160208701610558565b7f222c226f726967696e223a22687474703a2f2f6c6f63616c686f73743a33303060249390910192830152507f31222c2263726f73734f726967696e223a66616c73657d0000000000000000006044820152605b01919050565b600082516106a9818460208701610558565b9190910192915050565b6000602082840312156106c557600080fd5b5051919050565b600083516106de818460208801610558565b9190910191825250602001919050565b634e487b7160e01b600052601160045260246000fd5b81810381811115610717576107176106ee565b92915050565b634e487b7160e01b600052603260045260246000fd5b634e487b7160e01b600052604160045260246000fd5b60006001820161075b5761075b6106ee565b5060010190565b80820180821115610717576107176106ee565b60008261079257634e487b7160e01b600052601260045260246000fd5b500490565b8082028115828204841417610717576107176106ee56fe49960de5880e8c687434170f6476605b8fe4aeb9a28632c7995cf3ba831d976305000000004142434445464748494a4b4c4d4e4f505152535455565758595a6162636465666768696a6b6c6d6e6f707172737475767778797a303132333435363738392b2fa2646970667358221220410e40f7df4b80ee8830f576061bf20957235896fe63cd08980b66f87d1fcd0664736f6c63430008150033",
        "nonce": "0x6",
        "accessList": []
      },
      "additionalContracts": [],
      "isFixedGasLimit": false
    },
    {
      "hash": "0x11dcc4fb86a402128ec8412f277d790bf6a6972bfe581e2cff08559c10b637d8",
      "transactionType": "CALL",
      "contractName": null,
      "contractAddress": "0x748e5dD94d5F619371d763adfcBB0eDB863905fD",
      "function": "createAccount(bytes[],uint256)",
      "arguments": [
        "[0x000000000000000000000000fd896bf5eba7e1b9843b91ef6182de16b547273b, 0x1c05286fe694493eae33312f2d2e0d0abeda8db76238b7a204be1fb87f54ce4228fef61ef4ac300f631657635c28e59bfb2fe71bce1634c81c65642042f6dc4d]",
        "1"
      ],
      "transaction": {
        "type": "0x02",
        "from": "0xfd896bf5eba7e1b9843b91ef6182de16b547273b",
        "to": "0x748e5dd94d5f619371d763adfcbb0edb863905fd",
        "gas": "0x6011a",
        "value": "0x0",
        "data": "0x3ffba36f000000000000000000000000000000000000000000000000000000000000004000000000000000000000000000000000000000000000000000000000000000010000000000000000000000000000000000000000000000000000000000000002000000000000000000000000000000000000000000000000000000000000004000000000000000000000000000000000000000000000000000000000000000800000000000000000000000000000000000000000000000000000000000000020000000000000000000000000fd896bf5eba7e1b9843b91ef6182de16b547273b00000000000000000000000000000000000000000000000000000000000000401c05286fe694493eae33312f2d2e0d0abeda8db76238b7a204be1fb87f54ce4228fef61ef4ac300f631657635c28e59bfb2fe71bce1634c81c65642042f6dc4d",
        "nonce": "0x7",
        "accessList": []
      },
      "additionalContracts": [
        {
          "transactionType": "CREATE2",
          "address": "0xd78af011dB7e50B48ad38F06cf361B3456438C78",
          "initCode": "0x603d3d8160223d3973246591d894d3f53add36a467dfffa1df1ffe967560095155f3363d3d373d3d363d7f360894a13ba1a3210667c828492db98dca3e2076cc3735a920a3ca505d382bbc545af43d6000803e6038573d6000fd5b3d6000f3"
        }
      ],
      "isFixedGasLimit": false
    },
    {
      "hash": "0xc52d47032aaddd1ef52ee24274c34ebd394e2c08f712de9bfda07812aca2b6cd",
      "transactionType": "CALL",
      "contractName": null,
      "contractAddress": "0x5FF137D4b0FDCD49DcA30c7CF57E578a026d2789",
      "function": null,
      "arguments": null,
      "transaction": {
        "type": "0x02",
        "from": "0xfd896bf5eba7e1b9843b91ef6182de16b547273b",
        "to": "0x5ff137d4b0fdcd49dca30c7cf57e578a026d2789",
        "gas": "0xabdc8",
        "value": "0x0",
        "data": "0x1fad948c0000000000000000000000000000000000000000000000000000000000000040000000000000000000000000fd896bf5eba7e1b9843b91ef6182de16b547273b00000000000000000000000000000000000000000000000000000000000000010000000000000000000000000000000000000000000000000000000000000020000000000000000000000000d78af011db7e50b48ad38f06cf361b3456438c780000000000000000000000000000000000000000000000000000000000000000000000000000000000000000000000000000000000000000000000000000016000000000000000000000000000000000000000000000000000000000000001800000000000000000000000000000000000000000000000000000000000124f800000000000000000000000000000000000000000000000000000000000124f8000000000000000000000000000000000000000000000000000000000000f4c680000000000000000000000000000000000000000000000000000000000000000000000000000000000000000000000000000000000000000000000000000000000000000000000000000000000000000000000000000000000000000000001a000000000000000000000000000000000000000000000000000000000000001c000000000000000000000000000000000000000000000000000000000000000000000000000000000000000000000000000000000000000000000000000000000000000000000000000000000000000000000000000000000000000000000000000000000000000000000000000000000000000000000000000000000000001c1010000000000000000000000000000000000000000000000000000000000000020000000000000000000000000000000000000000000000000000000000000008000000000000000000000000000000000000000000000000000000000000000e0fbe7e7122600301f03a9ca776968369f963499a9dd8ae9e01f9b23d36a7c2f8b78f56a16798d626bf16273f22fd2bb37d0dcb2deb22b5d9e4ff9c929ba3ea289000000000000000000000000000000000000000000000000000000000000002549960de5880e8c687434170f6476605b8fe4aeb9a28632c7995cf3ba831d9763050000000000000000000000000000000000000000000000000000000000000000000000000000000000000000000000000000000000000000000000000000867b2274797065223a22776562617574686e2e676574222c226368616c6c656e6765223a22414f4648513456626d6e5853556f427071463457316d716c6171513779374f425247326942796f6f754830222c226f726967696e223a22687474703a2f2f6c6f63616c686f73743a33303031222c2263726f73734f726967696e223a66616c73657d000000000000000000000000000000000000000000000000000000000000000000000000000000000000000000000000000000000000000000",
        "nonce": "0x8",
        "accessList": []
      },
      "additionalContracts": [],
      "isFixedGasLimit": false
    }
  ],
  "receipts": [
    {
      "transactionHash": "0x9fb5439c513c7b365f5b7e748cdb96ae1678f06039bb2b1d72e1fb461c555d1e",
      "transactionIndex": "0x1",
      "blockHash": "0xacb04945c7cd4956f81dd4617c9621fe30c2e2d64171223826513090bf366eaa",
      "blockNumber": "0x4b1376",
      "from": "0xfd896Bf5Eba7E1B9843B91ef6182DE16B547273B",
      "to": null,
      "cumulativeGasUsed": "0x88565",
      "gasUsed": "0x7ce24",
      "contractAddress": "0x7D3cc8ea9174E48b8f3FFC2a226f09b2C8EBa6FB",
      "logs": [],
      "status": "0x1",
      "logsBloom": "0x00000000000000000000000000000000000000000000000000000000000000000000000000000000000000000000000000000000000000000000000000000000000000000000000000000000000000000000000000000000000000000000000000000000000000000000000000000000000000000000000000000000000000000000000000000000000000000000000000000000000000000000000000000000000000000000000000000000000000000000000000000000000000000000000000000000000000000000000000000000000000000000000000000000000000000000000000000000000000000000000000000000000000000000000000000000",
      "type": "0x2",
      "effectiveGasPrice": "0xb2d05efe"
    },
    {
      "transactionHash": "0x11dcc4fb86a402128ec8412f277d790bf6a6972bfe581e2cff08559c10b637d8",
      "transactionIndex": "0x2",
      "blockHash": "0xacb04945c7cd4956f81dd4617c9621fe30c2e2d64171223826513090bf366eaa",
      "blockNumber": "0x4b1376",
      "from": "0xfd896Bf5Eba7E1B9843B91ef6182DE16B547273B",
      "to": "0x748e5dD94d5F619371d763adfcBB0eDB863905fD",
      "cumulativeGasUsed": "0xcde41",
      "gasUsed": "0x458dc",
      "contractAddress": null,
      "logs": [
        {
          "address": "0xd78af011dB7e50B48ad38F06cf361B3456438C78",
          "topics": [
            "0xb1b2a0f017a004030d8ff60611b688cf1aedf388de72c474527d1f48115f6adb",
            "0x3b9245dcb1c6f7a52d79837b88ef5e7c74c9fd3bf6bb31e031978c8f52b79eeb",
            "0xe6dbd3c04565d8cdb8e01b564fe1c0d2fa7b0572635cc5d58b55324dfcb4f0ab",
            "0x0000000000000000000000000000000000000000000000000000000000000000"
          ],
          "data": "0x",
          "blockHash": "0xacb04945c7cd4956f81dd4617c9621fe30c2e2d64171223826513090bf366eaa",
          "blockNumber": "0x4b1376",
          "transactionHash": "0x11dcc4fb86a402128ec8412f277d790bf6a6972bfe581e2cff08559c10b637d8",
          "transactionIndex": "0x2",
          "logIndex": "0x0",
          "removed": false
        },
        {
          "address": "0xd78af011dB7e50B48ad38F06cf361B3456438C78",
          "topics": [
            "0xb1b2a0f017a004030d8ff60611b688cf1aedf388de72c474527d1f48115f6adb",
            "0x732df2dbaccc9e6bcd64b59e78e2a9a8e33eac7a31d07aca4c324a5d61b78092",
            "0xe6dbd3c04565d8cdb8e01b564fe1c0d2fa7b0572635cc5d58b55324dfcb4f0ab",
            "0x0000000000000000000000000000000000000000000000000000000000000001"
          ],
          "data": "0x",
          "blockHash": "0xacb04945c7cd4956f81dd4617c9621fe30c2e2d64171223826513090bf366eaa",
          "blockNumber": "0x4b1376",
          "transactionHash": "0x11dcc4fb86a402128ec8412f277d790bf6a6972bfe581e2cff08559c10b637d8",
          "transactionIndex": "0x2",
          "logIndex": "0x1",
          "removed": false
        }
      ],
      "status": "0x1",
      "logsBloom": "0x00000000000000000000000000000000000080000002000000000000000000000000000000000000000000000000000000000000000000000000000000040020000000000000000000000000000000008000000000040000000000000000000000000000028000000200000000000800000000000000000000000000000000000000000000000000000000000400000000000000000000000000000000200000000000008000000000000000000000000000000000000000000000000000000000000000000200000000000000000000000000000000000000000100004060000000000000000000000000000000022000000000000000000000000002000000",
      "type": "0x2",
      "effectiveGasPrice": "0xb2d05efe"
    }
  ],
  "libraries": [
    "test/Utils.sol:Utils:0x7d3cc8ea9174e48b8f3ffc2a226f09b2c8eba6fb"
  ],
  "pending": [],
  "returns": {},
  "timestamp": 1705608658,
  "chain": 84532,
  "multi": false,
  "commit": "3078ec4"
}